{
  "_format": "hh-sol-artifact-1",
  "contractName": "NFTMarket",
  "sourceName": "contracts/Market.sol",
  "abi": [
    {
      "inputs": [
        {
          "internalType": "uint8",
          "name": "_minBidIncrementPercentage",
          "type": "uint8"
        }
      ],
      "stateMutability": "nonpayable",
      "type": "constructor"
    },
    {
      "anonymous": false,
      "inputs": [
        {
          "indexed": true,
          "internalType": "uint256",
          "name": "nounId",
          "type": "uint256"
        },
        {
          "indexed": false,
          "internalType": "address",
          "name": "sender",
          "type": "address"
        },
        {
          "indexed": false,
          "internalType": "uint256",
          "name": "value",
          "type": "uint256"
        },
        {
          "indexed": false,
          "internalType": "bool",
          "name": "extended",
          "type": "bool"
        }
      ],
      "name": "AuctionBid",
      "type": "event"
    },
    {
      "anonymous": false,
      "inputs": [
        {
          "indexed": true,
          "internalType": "uint256",
          "name": "nounId",
          "type": "uint256"
        },
        {
          "indexed": false,
          "internalType": "uint256",
          "name": "startTime",
          "type": "uint256"
        },
        {
          "indexed": false,
          "internalType": "uint256",
          "name": "endTime",
          "type": "uint256"
        }
      ],
      "name": "AuctionCreated",
      "type": "event"
    },
    {
      "anonymous": false,
      "inputs": [
        {
          "indexed": true,
          "internalType": "uint256",
          "name": "nounId",
          "type": "uint256"
        },
        {
          "indexed": false,
          "internalType": "uint256",
          "name": "endTime",
          "type": "uint256"
        }
      ],
      "name": "AuctionExtended",
      "type": "event"
    },
    {
      "anonymous": false,
      "inputs": [
        {
          "indexed": false,
          "internalType": "uint256",
          "name": "minBidIncrementPercentage",
          "type": "uint256"
        }
      ],
      "name": "AuctionMinBidIncrementPercentageUpdated",
      "type": "event"
    },
    {
      "anonymous": false,
      "inputs": [
        {
          "indexed": false,
          "internalType": "uint256",
          "name": "reservePrice",
          "type": "uint256"
        }
      ],
      "name": "AuctionReservePriceUpdated",
      "type": "event"
    },
    {
      "anonymous": false,
      "inputs": [
        {
          "indexed": true,
          "internalType": "uint256",
          "name": "nounId",
          "type": "uint256"
        },
        {
          "indexed": false,
          "internalType": "address",
          "name": "winner",
          "type": "address"
        },
        {
          "indexed": false,
          "internalType": "uint256",
          "name": "amount",
          "type": "uint256"
        }
      ],
      "name": "AuctionSettled",
      "type": "event"
    },
    {
      "anonymous": false,
      "inputs": [
        {
          "indexed": false,
          "internalType": "uint256",
          "name": "timeBuffer",
          "type": "uint256"
        }
      ],
      "name": "AuctionTimeBufferUpdated",
      "type": "event"
    },
    {
      "anonymous": false,
      "inputs": [
        {
          "indexed": true,
          "internalType": "uint256",
          "name": "itemId",
          "type": "uint256"
        },
        {
          "indexed": true,
          "internalType": "address",
          "name": "nftContract",
          "type": "address"
        },
        {
          "indexed": true,
          "internalType": "uint256",
          "name": "tokenId",
          "type": "uint256"
        },
        {
          "indexed": false,
          "internalType": "address",
          "name": "seller",
          "type": "address"
        },
        {
          "indexed": false,
          "internalType": "address",
          "name": "owner",
          "type": "address"
        },
        {
          "indexed": false,
          "internalType": "uint256",
          "name": "price",
          "type": "uint256"
        },
        {
          "indexed": false,
          "internalType": "bool",
          "name": "sold",
          "type": "bool"
        },
        {
          "indexed": false,
          "internalType": "bool",
          "name": "auction",
          "type": "bool"
        }
      ],
      "name": "MarketItemCreated",
      "type": "event"
    },
    {
      "inputs": [],
      "name": "auction",
      "outputs": [
        {
          "internalType": "uint256",
          "name": "nounId",
          "type": "uint256"
        },
        {
          "internalType": "uint256",
          "name": "amount",
          "type": "uint256"
        },
        {
          "internalType": "uint256",
          "name": "startTime",
          "type": "uint256"
        },
        {
          "internalType": "uint256",
          "name": "endTime",
          "type": "uint256"
        },
        {
          "internalType": "address payable",
          "name": "bidder",
          "type": "address"
        },
        {
          "internalType": "bool",
          "name": "settled",
          "type": "bool"
        }
      ],
      "stateMutability": "view",
      "type": "function"
    },
    {
      "inputs": [
        {
          "internalType": "address",
          "name": "nftContract",
          "type": "address"
        },
        {
          "internalType": "uint256",
          "name": "itemId",
          "type": "uint256"
        }
      ],
      "name": "createAuction",
      "outputs": [],
      "stateMutability": "payable",
      "type": "function"
    },
    {
      "inputs": [
        {
          "internalType": "address",
          "name": "nftContract",
          "type": "address"
        },
        {
          "internalType": "uint256",
          "name": "tokenId",
          "type": "uint256"
        },
        {
          "internalType": "uint256",
          "name": "price",
          "type": "uint256"
        }
      ],
      "name": "createMarketItem",
      "outputs": [],
      "stateMutability": "payable",
      "type": "function"
    },
    {
      "inputs": [
        {
          "internalType": "address",
          "name": "nftContract",
          "type": "address"
        },
        {
          "internalType": "uint256",
          "name": "itemId",
          "type": "uint256"
        }
      ],
      "name": "createMarketSale",
      "outputs": [],
      "stateMutability": "payable",
      "type": "function"
    },
    {
      "inputs": [],
      "name": "duration",
      "outputs": [
        {
          "internalType": "uint256",
          "name": "",
          "type": "uint256"
        }
      ],
      "stateMutability": "view",
      "type": "function"
    },
    {
      "inputs": [],
      "name": "fetchItemsCreated",
      "outputs": [
        {
          "components": [
            {
              "internalType": "uint256",
              "name": "itemId",
              "type": "uint256"
            },
            {
              "internalType": "address",
              "name": "nftContract",
              "type": "address"
            },
            {
              "internalType": "uint256",
              "name": "tokenId",
              "type": "uint256"
            },
            {
              "internalType": "address payable",
              "name": "seller",
              "type": "address"
            },
            {
              "internalType": "address payable",
              "name": "owner",
              "type": "address"
            },
            {
              "internalType": "uint256",
              "name": "price",
              "type": "uint256"
            },
            {
              "internalType": "bool",
              "name": "sold",
              "type": "bool"
            },
            {
              "internalType": "bool",
              "name": "auction",
              "type": "bool"
            },
            {
              "internalType": "uint256",
              "name": "startTime",
              "type": "uint256"
            },
            {
              "internalType": "uint256",
              "name": "endTime",
              "type": "uint256"
            }
          ],
          "internalType": "struct NFTMarket.MarketItem[]",
          "name": "",
          "type": "tuple[]"
        }
      ],
      "stateMutability": "view",
      "type": "function"
    },
    {
      "inputs": [],
      "name": "fetchMarketItems",
      "outputs": [
        {
          "components": [
            {
              "internalType": "uint256",
              "name": "itemId",
              "type": "uint256"
            },
            {
              "internalType": "address",
              "name": "nftContract",
              "type": "address"
            },
            {
              "internalType": "uint256",
              "name": "tokenId",
              "type": "uint256"
            },
            {
              "internalType": "address payable",
              "name": "seller",
              "type": "address"
            },
            {
              "internalType": "address payable",
              "name": "owner",
              "type": "address"
            },
            {
              "internalType": "uint256",
              "name": "price",
              "type": "uint256"
            },
            {
              "internalType": "bool",
              "name": "sold",
              "type": "bool"
            },
            {
              "internalType": "bool",
              "name": "auction",
              "type": "bool"
            },
            {
              "internalType": "uint256",
              "name": "startTime",
              "type": "uint256"
            },
            {
              "internalType": "uint256",
              "name": "endTime",
              "type": "uint256"
            }
          ],
          "internalType": "struct NFTMarket.MarketItem[]",
          "name": "",
          "type": "tuple[]"
        }
      ],
      "stateMutability": "view",
      "type": "function"
    },
    {
      "inputs": [],
      "name": "fetchMyNFTs",
      "outputs": [
        {
          "components": [
            {
              "internalType": "uint256",
              "name": "itemId",
              "type": "uint256"
            },
            {
              "internalType": "address",
              "name": "nftContract",
              "type": "address"
            },
            {
              "internalType": "uint256",
              "name": "tokenId",
              "type": "uint256"
            },
            {
              "internalType": "address payable",
              "name": "seller",
              "type": "address"
            },
            {
              "internalType": "address payable",
              "name": "owner",
              "type": "address"
            },
            {
              "internalType": "uint256",
              "name": "price",
              "type": "uint256"
            },
            {
              "internalType": "bool",
              "name": "sold",
              "type": "bool"
            },
            {
              "internalType": "bool",
              "name": "auction",
              "type": "bool"
            },
            {
              "internalType": "uint256",
              "name": "startTime",
              "type": "uint256"
            },
            {
              "internalType": "uint256",
              "name": "endTime",
              "type": "uint256"
            }
          ],
          "internalType": "struct NFTMarket.MarketItem[]",
          "name": "",
          "type": "tuple[]"
        }
      ],
      "stateMutability": "view",
      "type": "function"
    },
    {
      "inputs": [],
      "name": "getListingPrice",
      "outputs": [
        {
          "internalType": "uint256",
          "name": "",
          "type": "uint256"
        }
      ],
      "stateMutability": "view",
      "type": "function"
    },
    {
      "inputs": [],
      "name": "minBidIncrementPercentage",
      "outputs": [
        {
          "internalType": "uint8",
          "name": "",
          "type": "uint8"
        }
      ],
      "stateMutability": "view",
      "type": "function"
    }
  ],
  "bytecode": "0x60806040526658d15e176280006004556305265c006005556006805460ff1916600a17905534801561003057600080fd5b506040516112f03803806112f083398101604081905261004f91610080565b6001600055600380546001600160a01b031916331790556006805460ff90921660ff199092169190911790556100a8565b600060208284031215610091578081fd5b815160ff811681146100a1578182fd5b9392505050565b611239806100b76000396000f3fe6080604052600436106100915760003560e01c80637d9f6db5116100595780637d9f6db514610124578063b296024d14610198578063c23b139e146101c4578063f064c32e146101d7578063f7e88298146101ec57600080fd5b80630f08efe0146100965780630fb5a6b4146100c157806312e85585146100e5578063202e3740146100fa57806358eb2df51461010f575b600080fd5b3480156100a257600080fd5b506100ab6101ff565b6040516100b89190611023565b60405180910390f35b3480156100cd57600080fd5b506100d760055481565b6040519081526020016100b8565b3480156100f157600080fd5b506004546100d7565b34801561010657600080fd5b506100ab6103ce565b61012261011d366004610ff1565b6105db565b005b34801561013057600080fd5b50600754600854600954600a54600b5461016094939291906001600160a01b03811690600160a01b900460ff1686565b6040805196875260208701959095529385019290925260608401526001600160a01b03166080830152151560a082015260c0016100b8565b3480156101a457600080fd5b506006546101b29060ff1681565b60405160ff90911681526020016100b8565b6101226101d2366004610fc8565b610936565b3480156101e357600080fd5b506100ab610cb8565b6101226101fa366004610fc8565b610ec5565b6060600061020c60015490565b9050600061021960025490565b60015461022691906111bb565b90506000808267ffffffffffffffff81111561025257634e487b7160e01b600052604160045260246000fd5b60405190808252806020026020018201604052801561028b57816020015b610278610f3a565b8152602001906001900390816102705790505b50905060005b848110156103c5576000600c816102a9846001611164565b81526020810191909152604001600020600401546001600160a01b031614156103b35760006102d9826001611164565b6000818152600c60209081526040918290208251610140810184528154815260018201546001600160a01b039081169382019390935260028201549381019390935260038101548216606084015260048101549091166080830152600581015460a0830152600681015460ff808216151560c08501526101009182900416151560e0840152600782015490830152600881015461012083015285519293509185908790811061039857634e487b7160e01b600052603260045260246000fd5b60209081029190910101526103ae600186611164565b945050505b806103bd816111d2565b915050610291565b50949350505050565b606060006103db60015490565b905060008060005b8381101561043e5733600c60006103fb846001611164565b81526020810191909152604001600020600401546001600160a01b0316141561042c57610429600184611164565b92505b80610436816111d2565b9150506103e3565b5060008267ffffffffffffffff81111561046857634e487b7160e01b600052604160045260246000fd5b6040519080825280602002602001820160405280156104a157816020015b61048e610f3a565b8152602001906001900390816104865790505b50905060005b848110156103c55733600c60006104bf846001611164565b81526020810191909152604001600020600401546001600160a01b031614156105c95760006104ef826001611164565b6000818152600c60209081526040918290208251610140810184528154815260018201546001600160a01b039081169382019390935260028201549381019390935260038101548216606084015260048101549091166080830152600581015460a0830152600681015460ff808216151560c08501526101009182900416151560e084015260078201549083015260088101546101208301528551929350918590879081106105ae57634e487b7160e01b600052603260045260246000fd5b60209081029190910101526105c4600186611164565b945050505b806105d3816111d2565b9150506104a7565b600260005414156106075760405162461bcd60e51b81526004016105fe9061112d565b60405180910390fd5b6002600055806106595760405162461bcd60e51b815260206004820152601c60248201527f5072696365206d757374206265206174206c656173742031207765690000000060448201526064016105fe565b60045434146106b65760405162461bcd60e51b8152602060048201526024808201527f5072696365206d75737420626520657175616c20746f206c697374696e6720706044820152637269636560e01b60648201526084016105fe565b6106c4600180546001019055565b60006106cf60015490565b9050604051806101400160405280828152602001856001600160a01b03168152602001848152602001336001600160a01b0316815260200160006001600160a01b03168152602001838152602001600015158152602001600015158152602001600081526020016000815250600c60008381526020019081526020016000206000820151816000015560208201518160010160006101000a8154816001600160a01b0302191690836001600160a01b031602179055506040820151816002015560608201518160030160006101000a8154816001600160a01b0302191690836001600160a01b0316021790555060808201518160040160006101000a8154816001600160a01b0302191690836001600160a01b0316021790555060a0820151816005015560c08201518160060160006101000a81548160ff02191690831515021790555060e08201518160060160016101000a81548160ff02191690831515021790555061010082015181600701556101208201518160080155905050836001600160a01b03166323b872dd3330866040518463ffffffff1660e01b815260040161089b939291906001600160a01b039384168152919092166020820152604081019190915260600190565b600060405180830381600087803b1580156108b557600080fd5b505af11580156108c9573d6000803e3d6000fd5b50506040805133815260006020820181905281830187905260608201819052608082015290518693506001600160a01b038816925084917fc99151f4453170a67bc7441775fde1a3bc3220c06645df1121e703aab5e7da5d919081900360a00190a4505060016000555050565b600260005414156109595760405162461bcd60e51b81526004016105fe9061112d565b60026000818155828152600c6020818152604080842060058101549581015460089091015482518085018290527f3a2041756374696f6e20686173206e6f74207374617274656420796574000000818501528351603d818303018152605d9091019093529487905292909152909181906109e65760405162461bcd60e51b81526004016105fe91906110da565b506000848152600c60208181526040808420600801548151808401829052700e88105d58dd1a5bdb88195e1c1a5c9959607a1b81840152825160318183030181526051909101909252938890529190529081904210610a585760405162461bcd60e51b81526004016105fe91906110da565b506040805160c08101825260075481526008546020820181905260095492820192909252600a546060820152600b546001600160a01b038116608083015260ff600160a01b9091048116151560a08301526006549192606492610abc92169061119c565b610ac6919061117c565b8160200151610ad59190611164565b341015610b4c576040805162461bcd60e51b81526020600482015260248101919091527f4d7573742073656e64206d6f7265207468616e206c617374206269642062792060448201527f6d696e426964496e6372656d656e7450657263656e7461676520616d6f756e7460648201526084016105fe565b346008819055600b80546001600160a01b031916331790556000878152600c60205260408082206003015490516001600160a01b03919091169280156108fc0292909190818181858888f19350505050158015610bad573d6000803e3d6000fd5b506040516323b872dd60e01b8152306004820152336024820152604481018590526001600160a01b038816906323b872dd90606401600060405180830381600087803b158015610bfc57600080fd5b505af1158015610c10573d6000803e3d6000fd5b5050506000878152600c602052604090206004810180546001600160a01b03191633179055600601805461ffff1916600117905550610c53600280546001019055565b6003546004546040516001600160a01b039092169181156108fc0291906000818181858888f19350505050158015610c8f573d6000803e3d6000fd5b506000610c9b60025490565b600154610ca891906111bb565b5050600160005550505050505050565b60606000610cc560015490565b905060008060005b83811015610d285733600c6000610ce5846001611164565b81526020810191909152604001600020600301546001600160a01b03161415610d1657610d13600184611164565b92505b80610d20816111d2565b915050610ccd565b5060008267ffffffffffffffff811115610d5257634e487b7160e01b600052604160045260246000fd5b604051908082528060200260200182016040528015610d8b57816020015b610d78610f3a565b815260200190600190039081610d705790505b50905060005b848110156103c55733600c6000610da9846001611164565b81526020810191909152604001600020600301546001600160a01b03161415610eb3576000610dd9826001611164565b6000818152600c60209081526040918290208251610140810184528154815260018201546001600160a01b039081169382019390935260028201549381019390935260038101548216606084015260048101549091166080830152600581015460a0830152600681015460ff808216151560c08501526101009182900416151560e08401526007820154908301526008810154610120830152855192935091859087908110610e9857634e487b7160e01b600052603260045260246000fd5b6020908102919091010152610eae600186611164565b945050505b80610ebd816111d2565b915050610d91565b60026000541415610ee85760405162461bcd60e51b81526004016105fe9061112d565b60026000908155818152600c6020526040902060068101805461ff001916610100179055426007909101819055600554610f2191611164565b6000918252600c60205260408220600801556001905550565b6040518061014001604052806000815260200160006001600160a01b031681526020016000815260200160006001600160a01b0316815260200160006001600160a01b031681526020016000815260200160001515815260200160001515815260200160008152602001600081525090565b80356001600160a01b0381168114610fc357600080fd5b919050565b60008060408385031215610fda578182fd5b610fe383610fac565b946020939093013593505050565b600080600060608486031215611005578081fd5b61100e84610fac565b95602085013595506040909401359392505050565b602080825282518282018190526000919060409081850190868401855b828110156110cd57815180518552868101516001600160a01b039081168887015286820151878701526060808301518216908701526080808301519091169086015260a0808201519086015260c08082015115159086015260e080820151151590860152610100808201519086015261012090810151908501526101409093019290850190600101611040565b5091979650505050505050565b6000602080835283518082850152825b81811015611106578581018301518582016040015282016110ea565b818111156111175783604083870101525b50601f01601f1916929092016040019392505050565b6020808252601f908201527f5265656e7472616e637947756172643a207265656e7472616e742063616c6c00604082015260600190565b60008219821115611177576111776111ed565b500190565b60008261119757634e487b7160e01b81526012600452602481fd5b500490565b60008160001904831182151516156111b6576111b66111ed565b500290565b6000828210156111cd576111cd6111ed565b500390565b60006000198214156111e6576111e66111ed565b5060010190565b634e487b7160e01b600052601160045260246000fdfea26469706673582212200967bc35afbe042dfe5f1b846163740a36f1c13daf93c909b893bf7d835aa21c64736f6c63430008040033",
  "linkReferences": {},
  "deployedLinkReferences": {}
}