{
  "_format": "hh-sol-artifact-1",
  "contractName": "NFTMarket",
  "sourceName": "contracts/Market.sol",
  "abi": [
    {
      "inputs": [],
      "stateMutability": "nonpayable",
      "type": "constructor"
    },
    {
      "anonymous": false,
      "inputs": [
        {
          "indexed": true,
          "internalType": "uint256",
          "name": "itemId",
          "type": "uint256"
        },
        {
          "indexed": true,
          "internalType": "address",
          "name": "nftContract",
          "type": "address"
        },
        {
          "indexed": true,
          "internalType": "uint256",
          "name": "tokenId",
          "type": "uint256"
        },
        {
          "indexed": false,
          "internalType": "address",
          "name": "seller",
          "type": "address"
        },
        {
          "indexed": false,
          "internalType": "address",
          "name": "owner",
          "type": "address"
        },
        {
          "indexed": false,
          "internalType": "uint256",
          "name": "price",
          "type": "uint256"
        },
        {
          "indexed": false,
          "internalType": "bool",
          "name": "sold",
          "type": "bool"
        },
        {
          "indexed": false,
          "internalType": "bool",
          "name": "auction",
          "type": "bool"
        }
      ],
      "name": "MarketItemCreated",
      "type": "event"
    },
    {
      "inputs": [
        {
          "internalType": "address",
          "name": "nftContract",
          "type": "address"
        },
        {
          "internalType": "uint256",
          "name": "itemId",
          "type": "uint256"
        }
      ],
      "name": "createAuction",
      "outputs": [],
      "stateMutability": "payable",
      "type": "function"
    },
    {
      "inputs": [
        {
          "internalType": "address",
          "name": "nftContract",
          "type": "address"
        },
        {
          "internalType": "uint256",
          "name": "tokenId",
          "type": "uint256"
        },
        {
          "internalType": "uint256",
          "name": "price",
          "type": "uint256"
        }
      ],
      "name": "createMarketItem",
      "outputs": [],
      "stateMutability": "payable",
      "type": "function"
    },
    {
      "inputs": [
        {
          "internalType": "address",
          "name": "nftContract",
          "type": "address"
        },
        {
          "internalType": "uint256",
          "name": "itemId",
          "type": "uint256"
        }
      ],
      "name": "createMarketSale",
      "outputs": [],
      "stateMutability": "payable",
      "type": "function"
    },
    {
      "inputs": [],
      "name": "duration",
      "outputs": [
        {
          "internalType": "uint256",
          "name": "",
          "type": "uint256"
        }
      ],
      "stateMutability": "view",
      "type": "function"
    },
    {
      "inputs": [],
      "name": "fetchItemsCreated",
      "outputs": [
        {
          "components": [
            {
              "internalType": "uint256",
              "name": "itemId",
              "type": "uint256"
            },
            {
              "internalType": "address",
              "name": "nftContract",
              "type": "address"
            },
            {
              "internalType": "uint256",
              "name": "tokenId",
              "type": "uint256"
            },
            {
              "internalType": "address payable",
              "name": "seller",
              "type": "address"
            },
            {
              "internalType": "address payable",
              "name": "owner",
              "type": "address"
            },
            {
              "internalType": "uint256",
              "name": "price",
              "type": "uint256"
            },
            {
              "internalType": "bool",
              "name": "sold",
              "type": "bool"
            },
            {
              "internalType": "bool",
              "name": "auction",
              "type": "bool"
            },
            {
              "internalType": "uint256",
              "name": "startTime",
              "type": "uint256"
            },
            {
              "internalType": "uint256",
              "name": "endTime",
              "type": "uint256"
            }
          ],
          "internalType": "struct NFTMarket.MarketItem[]",
          "name": "",
          "type": "tuple[]"
        }
      ],
      "stateMutability": "view",
      "type": "function"
    },
    {
      "inputs": [],
      "name": "fetchMarketItems",
      "outputs": [
        {
          "components": [
            {
              "internalType": "uint256",
              "name": "itemId",
              "type": "uint256"
            },
            {
              "internalType": "address",
              "name": "nftContract",
              "type": "address"
            },
            {
              "internalType": "uint256",
              "name": "tokenId",
              "type": "uint256"
            },
            {
              "internalType": "address payable",
              "name": "seller",
              "type": "address"
            },
            {
              "internalType": "address payable",
              "name": "owner",
              "type": "address"
            },
            {
              "internalType": "uint256",
              "name": "price",
              "type": "uint256"
            },
            {
              "internalType": "bool",
              "name": "sold",
              "type": "bool"
            },
            {
              "internalType": "bool",
              "name": "auction",
              "type": "bool"
            },
            {
              "internalType": "uint256",
              "name": "startTime",
              "type": "uint256"
            },
            {
              "internalType": "uint256",
              "name": "endTime",
              "type": "uint256"
            }
          ],
          "internalType": "struct NFTMarket.MarketItem[]",
          "name": "",
          "type": "tuple[]"
        }
      ],
      "stateMutability": "view",
      "type": "function"
    },
    {
      "inputs": [],
      "name": "fetchMyNFTs",
      "outputs": [
        {
          "components": [
            {
              "internalType": "uint256",
              "name": "itemId",
              "type": "uint256"
            },
            {
              "internalType": "address",
              "name": "nftContract",
              "type": "address"
            },
            {
              "internalType": "uint256",
              "name": "tokenId",
              "type": "uint256"
            },
            {
              "internalType": "address payable",
              "name": "seller",
              "type": "address"
            },
            {
              "internalType": "address payable",
              "name": "owner",
              "type": "address"
            },
            {
              "internalType": "uint256",
              "name": "price",
              "type": "uint256"
            },
            {
              "internalType": "bool",
              "name": "sold",
              "type": "bool"
            },
            {
              "internalType": "bool",
              "name": "auction",
              "type": "bool"
            },
            {
              "internalType": "uint256",
              "name": "startTime",
              "type": "uint256"
            },
            {
              "internalType": "uint256",
              "name": "endTime",
              "type": "uint256"
            }
          ],
          "internalType": "struct NFTMarket.MarketItem[]",
          "name": "",
          "type": "tuple[]"
        }
      ],
      "stateMutability": "view",
      "type": "function"
    },
    {
      "inputs": [],
      "name": "getListingPrice",
      "outputs": [
        {
          "internalType": "uint256",
          "name": "",
          "type": "uint256"
        }
      ],
      "stateMutability": "view",
      "type": "function"
    }
  ],
  "bytecode": "0x60806040526658d15e176280006004556201518060055534801561002257600080fd5b506001600055600380546001600160a01b03191633179055610f97806100496000396000f3fe60806040526004361061007b5760003560e01c806358eb2df51161004e57806358eb2df5146100f9578063c23b139e1461010e578063f064c32e14610121578063f7e882981461013657600080fd5b80630f08efe0146100805780630fb5a6b4146100ab57806312e85585146100cf578063202e3740146100e4575b600080fd5b34801561008c57600080fd5b50610095610149565b6040516100a29190610db5565b60405180910390f35b3480156100b757600080fd5b506100c160055481565b6040519081526020016100a2565b3480156100db57600080fd5b506004546100c1565b3480156100f057600080fd5b50610095610317565b61010c610107366004610d83565b610523565b005b61010c61011c366004610d5a565b61087e565b34801561012d57600080fd5b50610095610a12565b61010c610144366004610d5a565b610c1e565b6060600061015660015490565b9050600061016360025490565b6001546101709190610f19565b90506000808267ffffffffffffffff81111561019c57634e487b7160e01b600052604160045260246000fd5b6040519080825280602002602001820160405280156101d557816020015b6101c2610ccc565b8152602001906001900390816101ba5790505b50905060005b8481101561030e5760006006816101f3846001610f01565b81526020810191909152604001600020600401546001600160a01b031614156102fc576000610223826001610f01565b6000818152600660208181526040928390208351610140810185528154815260018201546001600160a01b039081169382019390935260028201549481019490945260038101548216606085015260048101549091166080840152600581015460a08401529081015460ff808216151560c08501526101009182900416151560e084015260078201549083015260088101546101208301528551929350918590879081106102e157634e487b7160e01b600052603260045260246000fd5b60209081029190910101526102f7600186610f01565b945050505b8061030681610f30565b9150506101db565b50949350505050565b6060600061032460015490565b905060008060005b83811015610387573360066000610344846001610f01565b81526020810191909152604001600020600401546001600160a01b0316141561037557610372600184610f01565b92505b8061037f81610f30565b91505061032c565b5060008267ffffffffffffffff8111156103b157634e487b7160e01b600052604160045260246000fd5b6040519080825280602002602001820160405280156103ea57816020015b6103d7610ccc565b8152602001906001900390816103cf5790505b50905060005b8481101561030e573360066000610408846001610f01565b81526020810191909152604001600020600401546001600160a01b03161415610511576000610438826001610f01565b6000818152600660208181526040928390208351610140810185528154815260018201546001600160a01b039081169382019390935260028201549481019490945260038101548216606085015260048101549091166080840152600581015460a08401529081015460ff808216151560c08501526101009182900416151560e084015260078201549083015260088101546101208301528551929350918590879081106104f657634e487b7160e01b600052603260045260246000fd5b602090810291909101015261050c600186610f01565b945050505b8061051b81610f30565b9150506103f0565b6002600054141561054f5760405162461bcd60e51b815260040161054690610eca565b60405180910390fd5b6002600055806105a15760405162461bcd60e51b815260206004820152601c60248201527f5072696365206d757374206265206174206c65617374203120776569000000006044820152606401610546565b60045434146105fe5760405162461bcd60e51b8152602060048201526024808201527f5072696365206d75737420626520657175616c20746f206c697374696e6720706044820152637269636560e01b6064820152608401610546565b61060c600180546001019055565b600061061760015490565b9050604051806101400160405280828152602001856001600160a01b03168152602001848152602001336001600160a01b0316815260200160006001600160a01b03168152602001838152602001600015158152602001600015158152602001600081526020016000815250600660008381526020019081526020016000206000820151816000015560208201518160010160006101000a8154816001600160a01b0302191690836001600160a01b031602179055506040820151816002015560608201518160030160006101000a8154816001600160a01b0302191690836001600160a01b0316021790555060808201518160040160006101000a8154816001600160a01b0302191690836001600160a01b0316021790555060a0820151816005015560c08201518160060160006101000a81548160ff02191690831515021790555060e08201518160060160016101000a81548160ff02191690831515021790555061010082015181600701556101208201518160080155905050836001600160a01b03166323b872dd3330866040518463ffffffff1660e01b81526004016107e3939291906001600160a01b039384168152919092166020820152604081019190915260600190565b600060405180830381600087803b1580156107fd57600080fd5b505af1158015610811573d6000803e3d6000fd5b50506040805133815260006020820181905281830187905260608201819052608082015290518693506001600160a01b038816925084917fc99151f4453170a67bc7441775fde1a3bc3220c06645df1121e703aab5e7da5d919081900360a00190a4505060016000555050565b600260005414156108a15760405162461bcd60e51b815260040161054690610eca565b6002600081815582815260066020526040902060058101549101543482146108db5760405162461bcd60e51b815260040161054690610e6c565b6000838152600660205260408082206003015490516001600160a01b03909116913480156108fc02929091818181858888f19350505050158015610923573d6000803e3d6000fd5b506040516323b872dd60e01b8152306004820152336024820152604481018290526001600160a01b038516906323b872dd90606401600060405180830381600087803b15801561097257600080fd5b505af1158015610986573d6000803e3d6000fd5b50505060008481526006602081905260409091206004810180546001600160a01b0319163317905501805461ffff19166001179055506109ca600280546001019055565b6003546004546040516001600160a01b039092169181156108fc0291906000818181858888f19350505050158015610a06573d6000803e3d6000fd5b50506001600055505050565b60606000610a1f60015490565b905060008060005b83811015610a82573360066000610a3f846001610f01565b81526020810191909152604001600020600301546001600160a01b03161415610a7057610a6d600184610f01565b92505b80610a7a81610f30565b915050610a27565b5060008267ffffffffffffffff811115610aac57634e487b7160e01b600052604160045260246000fd5b604051908082528060200260200182016040528015610ae557816020015b610ad2610ccc565b815260200190600190039081610aca5790505b50905060005b8481101561030e573360066000610b03846001610f01565b81526020810191909152604001600020600301546001600160a01b03161415610c0c576000610b33826001610f01565b6000818152600660208181526040928390208351610140810185528154815260018201546001600160a01b039081169382019390935260028201549481019490945260038101548216606085015260048101549091166080840152600581015460a08401529081015460ff808216151560c08501526101009182900416151560e08401526007820154908301526008810154610120830152855192935091859087908110610bf157634e487b7160e01b600052603260045260246000fd5b6020908102919091010152610c07600186610f01565b945050505b80610c1681610f30565b915050610aeb565b60026000541415610c415760405162461bcd60e51b815260040161054690610eca565b600260008181558281526006602052604090206005810154910154348214610c7b5760405162461bcd60e51b815260040161054690610e6c565b6000838152600660208190526040909120908101805461ff001916610100179055426007909101819055600554610cb191610f01565b60009384526006602052604084206008015550506001905550565b6040518061014001604052806000815260200160006001600160a01b031681526020016000815260200160006001600160a01b0316815260200160006001600160a01b031681526020016000815260200160001515815260200160001515815260200160008152602001600081525090565b80356001600160a01b0381168114610d5557600080fd5b919050565b60008060408385031215610d6c578182fd5b610d7583610d3e565b946020939093013593505050565b600080600060608486031215610d97578081fd5b610da084610d3e565b95602085013595506040909401359392505050565b602080825282518282018190526000919060409081850190868401855b82811015610e5f57815180518552868101516001600160a01b039081168887015286820151878701526060808301518216908701526080808301519091169086015260a0808201519086015260c08082015115159086015260e080820151151590860152610100808201519086015261012090810151908501526101409093019290850190600101610dd2565b5091979650505050505050565b602080825260409082018190527f506c65617365207375626d6974207468652061736b696e672070726963652069908201527f6e206f7264657220746f20636f6d706c65746520746865207075726368617365606082015260800190565b6020808252601f908201527f5265656e7472616e637947756172643a207265656e7472616e742063616c6c00604082015260600190565b60008219821115610f1457610f14610f4b565b500190565b600082821015610f2b57610f2b610f4b565b500390565b6000600019821415610f4457610f44610f4b565b5060010190565b634e487b7160e01b600052601160045260246000fdfea2646970667358221220cf4e0bb87240f82a976f1df1326d91182f8d8a28bf70ffca8e357c75e69e67d164736f6c63430008040033",
  "linkReferences": {},
  "deployedLinkReferences": {}
}