{
  "_format": "hh-sol-artifact-1",
  "contractName": "NFTV2",
  "sourceName": "contracts/NFTV2.sol",
  "abi": [
    {
      "inputs": [
        {
          "internalType": "address",
          "name": "marketplaceAddress",
          "type": "address"
        }
      ],
      "stateMutability": "nonpayable",
      "type": "constructor"
    },
    {
      "anonymous": false,
      "inputs": [
        {
          "indexed": true,
          "internalType": "address",
          "name": "owner",
          "type": "address"
        },
        {
          "indexed": true,
          "internalType": "address",
          "name": "approved",
          "type": "address"
        },
        {
          "indexed": true,
          "internalType": "uint256",
          "name": "tokenId",
          "type": "uint256"
        }
      ],
      "name": "Approval",
      "type": "event"
    },
    {
      "anonymous": false,
      "inputs": [
        {
          "indexed": true,
          "internalType": "address",
          "name": "owner",
          "type": "address"
        },
        {
          "indexed": true,
          "internalType": "address",
          "name": "operator",
          "type": "address"
        },
        {
          "indexed": false,
          "internalType": "bool",
          "name": "approved",
          "type": "bool"
        }
      ],
      "name": "ApprovalForAll",
      "type": "event"
    },
    {
      "anonymous": false,
      "inputs": [
        {
          "indexed": true,
          "internalType": "address",
          "name": "from",
          "type": "address"
        },
        {
          "indexed": true,
          "internalType": "address",
          "name": "to",
          "type": "address"
        },
        {
          "indexed": true,
          "internalType": "uint256",
          "name": "tokenId",
          "type": "uint256"
        }
      ],
      "name": "Transfer",
      "type": "event"
    },
    {
      "inputs": [
        {
          "internalType": "address",
          "name": "to",
          "type": "address"
        },
        {
          "internalType": "uint256",
          "name": "tokenId",
          "type": "uint256"
        }
      ],
      "name": "approve",
      "outputs": [],
      "stateMutability": "nonpayable",
      "type": "function"
    },
    {
      "inputs": [
        {
          "internalType": "address",
          "name": "owner",
          "type": "address"
        }
      ],
      "name": "balanceOf",
      "outputs": [
        {
          "internalType": "uint256",
          "name": "",
          "type": "uint256"
        }
      ],
      "stateMutability": "view",
      "type": "function"
    },
    {
      "inputs": [],
      "name": "contractURI",
      "outputs": [
        {
          "internalType": "string",
          "name": "",
          "type": "string"
        }
      ],
      "stateMutability": "view",
      "type": "function"
    },
    {
      "inputs": [
        {
          "internalType": "string",
          "name": "tokenURI",
          "type": "string"
        }
      ],
      "name": "createToken",
      "outputs": [
        {
          "internalType": "uint256",
          "name": "",
          "type": "uint256"
        }
      ],
      "stateMutability": "nonpayable",
      "type": "function"
    },
    {
      "inputs": [
        {
          "internalType": "uint256",
          "name": "tokenId",
          "type": "uint256"
        }
      ],
      "name": "getApproved",
      "outputs": [
        {
          "internalType": "address",
          "name": "",
          "type": "address"
        }
      ],
      "stateMutability": "view",
      "type": "function"
    },
    {
      "inputs": [
        {
          "internalType": "address",
          "name": "owner",
          "type": "address"
        },
        {
          "internalType": "address",
          "name": "operator",
          "type": "address"
        }
      ],
      "name": "isApprovedForAll",
      "outputs": [
        {
          "internalType": "bool",
          "name": "",
          "type": "bool"
        }
      ],
      "stateMutability": "view",
      "type": "function"
    },
    {
      "inputs": [],
      "name": "name",
      "outputs": [
        {
          "internalType": "string",
          "name": "",
          "type": "string"
        }
      ],
      "stateMutability": "view",
      "type": "function"
    },
    {
      "inputs": [
        {
          "internalType": "uint256",
          "name": "tokenId",
          "type": "uint256"
        }
      ],
      "name": "ownerOf",
      "outputs": [
        {
          "internalType": "address",
          "name": "",
          "type": "address"
        }
      ],
      "stateMutability": "view",
      "type": "function"
    },
    {
      "inputs": [
        {
          "internalType": "address",
          "name": "from",
          "type": "address"
        },
        {
          "internalType": "address",
          "name": "to",
          "type": "address"
        },
        {
          "internalType": "uint256",
          "name": "tokenId",
          "type": "uint256"
        }
      ],
      "name": "safeTransferFrom",
      "outputs": [],
      "stateMutability": "nonpayable",
      "type": "function"
    },
    {
      "inputs": [
        {
          "internalType": "address",
          "name": "from",
          "type": "address"
        },
        {
          "internalType": "address",
          "name": "to",
          "type": "address"
        },
        {
          "internalType": "uint256",
          "name": "tokenId",
          "type": "uint256"
        },
        {
          "internalType": "bytes",
          "name": "_data",
          "type": "bytes"
        }
      ],
      "name": "safeTransferFrom",
      "outputs": [],
      "stateMutability": "nonpayable",
      "type": "function"
    },
    {
      "inputs": [
        {
          "internalType": "address",
          "name": "operator",
          "type": "address"
        },
        {
          "internalType": "bool",
          "name": "approved",
          "type": "bool"
        }
      ],
      "name": "setApprovalForAll",
      "outputs": [],
      "stateMutability": "nonpayable",
      "type": "function"
    },
    {
      "inputs": [
        {
          "internalType": "bytes4",
          "name": "interfaceId",
          "type": "bytes4"
        }
      ],
      "name": "supportsInterface",
      "outputs": [
        {
          "internalType": "bool",
          "name": "",
          "type": "bool"
        }
      ],
      "stateMutability": "view",
      "type": "function"
    },
    {
      "inputs": [],
      "name": "symbol",
      "outputs": [
        {
          "internalType": "string",
          "name": "",
          "type": "string"
        }
      ],
      "stateMutability": "view",
      "type": "function"
    },
    {
      "inputs": [
        {
          "internalType": "uint256",
          "name": "tokenId",
          "type": "uint256"
        }
      ],
      "name": "tokenURI",
      "outputs": [
        {
          "internalType": "string",
          "name": "",
          "type": "string"
        }
      ],
      "stateMutability": "view",
      "type": "function"
    },
    {
      "inputs": [
        {
          "internalType": "address",
          "name": "from",
          "type": "address"
        },
        {
          "internalType": "address",
          "name": "to",
          "type": "address"
        },
        {
          "internalType": "uint256",
          "name": "tokenId",
          "type": "uint256"
        }
      ],
      "name": "transferFrom",
      "outputs": [],
      "stateMutability": "nonpayable",
      "type": "function"
    }
  ],
  "bytecode": "0x6080604052600a6009553480156200001657600080fd5b5060405162001a2b38038062001a2b83398101604081905262000039916200016c565b6040805180820182526009815268536c6173684649524560b81b6020808301918252835180850190945260048452634649524560e01b9084015281519192916200008691600091620000c6565b5080516200009c906001906020840190620000c6565b5050600880546001600160a01b0319166001600160a01b03939093169290921790915550620001d9565b828054620000d4906200019c565b90600052602060002090601f016020900481019282620000f8576000855562000143565b82601f106200011357805160ff191683800117855562000143565b8280016001018555821562000143579182015b828111156200014357825182559160200191906001019062000126565b506200015192915062000155565b5090565b5b8082111562000151576000815560010162000156565b6000602082840312156200017e578081fd5b81516001600160a01b038116811462000195578182fd5b9392505050565b600181811c90821680620001b157607f821691505b60208210811415620001d357634e487b7160e01b600052602260045260246000fd5b50919050565b61184280620001e96000396000f3fe608060405234801561001057600080fd5b50600436106100f55760003560e01c80636352211e11610097578063b88d4fde11610066578063b88d4fde146101ff578063c87b56dd14610212578063e8a3d48514610225578063e985e9c51461022d57600080fd5b80636352211e146101be57806370a08231146101d157806395d89b41146101e4578063a22cb465146101ec57600080fd5b8063095ea7b3116100d3578063095ea7b31461016257806323b872dd1461017757806342842e0e1461018a57806345576f941461019d57600080fd5b806301ffc9a7146100fa57806306fdde0314610122578063081812fc14610137575b600080fd5b61010d610108366004611411565b610269565b60405190151581526020015b60405180910390f35b61012a6102bb565b604051610119919061158d565b61014a61014536600461148f565b61034d565b6040516001600160a01b039091168152602001610119565b6101756101703660046113e8565b6103da565b005b6101756101853660046112fa565b6104f0565b6101756101983660046112fa565b610521565b6101b06101ab366004611449565b61053c565b604051908152602001610119565b61014a6101cc36600461148f565b6105e2565b6101b06101df3660046112ae565b610659565b61012a6106e0565b6101756101fa3660046113ae565b6106ef565b61017561020d366004611335565b6107b4565b61012a61022036600461148f565b6107ec565b61012a610963565b61010d61023b3660046112c8565b6001600160a01b03918216600090815260056020908152604080832093909416825291909152205460ff1690565b60006001600160e01b031982166380ac58cd60e01b148061029a57506001600160e01b03198216635b5e139f60e01b145b806102b557506301ffc9a760e01b6001600160e01b03198316145b92915050565b6060600080546102ca906116b2565b80601f01602080910402602001604051908101604052809291908181526020018280546102f6906116b2565b80156103435780601f1061031857610100808354040283529160200191610343565b820191906000526020600020905b81548152906001019060200180831161032657829003601f168201915b5050505050905090565b600061035882610983565b6103be5760405162461bcd60e51b815260206004820152602c60248201527f4552433732313a20617070726f76656420717565727920666f72206e6f6e657860448201526b34b9ba32b73a103a37b5b2b760a11b60648201526084015b60405180910390fd5b506000908152600460205260409020546001600160a01b031690565b60006103e5826105e2565b9050806001600160a01b0316836001600160a01b031614156104535760405162461bcd60e51b815260206004820152602160248201527f4552433732313a20617070726f76616c20746f2063757272656e74206f776e656044820152603960f91b60648201526084016103b5565b336001600160a01b038216148061046f575061046f813361023b565b6104e15760405162461bcd60e51b815260206004820152603860248201527f4552433732313a20617070726f76652063616c6c6572206973206e6f74206f7760448201527f6e6572206e6f7220617070726f76656420666f7220616c6c000000000000000060648201526084016103b5565b6104eb83836109a0565b505050565b6104fa3382610a0e565b6105165760405162461bcd60e51b81526004016103b5906115f2565b6104eb838383610af4565b6104eb838383604051806020016040528060008152506107b4565b6000806105476106e0565b6040516020016105579190611502565b604051602081830303815290604052905061057160075490565b6009541181906105945760405162461bcd60e51b81526004016103b5919061158d565b506105a3600780546001019055565b60006105ae60075490565b90506105ba3382610c94565b6105c48185610dc7565b6008546105db906001600160a01b031660016106ef565b9392505050565b6000818152600260205260408120546001600160a01b0316806102b55760405162461bcd60e51b815260206004820152602960248201527f4552433732313a206f776e657220717565727920666f72206e6f6e657869737460448201526832b73a103a37b5b2b760b91b60648201526084016103b5565b60006001600160a01b0382166106c45760405162461bcd60e51b815260206004820152602a60248201527f4552433732313a2062616c616e636520717565727920666f7220746865207a65604482015269726f206164647265737360b01b60648201526084016103b5565b506001600160a01b031660009081526003602052604090205490565b6060600180546102ca906116b2565b6001600160a01b0382163314156107485760405162461bcd60e51b815260206004820152601960248201527f4552433732313a20617070726f766520746f2063616c6c65720000000000000060448201526064016103b5565b3360008181526005602090815260408083206001600160a01b03871680855290835292819020805460ff191686151590811790915590519081529192917f17307eab39ab6107e8899845ad3d59bd9653f200f220920489ca2b5937696c31910160405180910390a35050565b6107be3383610a0e565b6107da5760405162461bcd60e51b81526004016103b5906115f2565b6107e684848484610e52565b50505050565b60606107f782610983565b61085d5760405162461bcd60e51b815260206004820152603160248201527f45524337323155524953746f726167653a2055524920717565727920666f72206044820152703737b732bc34b9ba32b73a103a37b5b2b760791b60648201526084016103b5565b60008281526006602052604081208054610876906116b2565b80601f01602080910402602001604051908101604052809291908181526020018280546108a2906116b2565b80156108ef5780601f106108c4576101008083540402835291602001916108ef565b820191906000526020600020905b8154815290600101906020018083116108d257829003601f168201915b50505050509050600061090d60408051602081019091526000815290565b9050805160001415610920575092915050565b81511561095257808260405160200161093a9291906114d3565b60405160208183030381529060405292505050919050565b61095b84610e85565b949350505050565b60606040518060c001604052806095815260200161177860959139905090565b6000908152600260205260409020546001600160a01b0316151590565b600081815260046020526040902080546001600160a01b0319166001600160a01b03841690811790915581906109d5826105e2565b6001600160a01b03167f8c5be1e5ebec7d5bd14f71427d1e84f3dd0314c0f7b2291e5b200ac8c7c3b92560405160405180910390a45050565b6000610a1982610983565b610a7a5760405162461bcd60e51b815260206004820152602c60248201527f4552433732313a206f70657261746f7220717565727920666f72206e6f6e657860448201526b34b9ba32b73a103a37b5b2b760a11b60648201526084016103b5565b6000610a85836105e2565b9050806001600160a01b0316846001600160a01b03161480610ac05750836001600160a01b0316610ab58461034d565b6001600160a01b0316145b8061095b57506001600160a01b0380821660009081526005602090815260408083209388168352929052205460ff1661095b565b826001600160a01b0316610b07826105e2565b6001600160a01b031614610b6f5760405162461bcd60e51b815260206004820152602960248201527f4552433732313a207472616e73666572206f6620746f6b656e2074686174206960448201526839903737ba1037bbb760b91b60648201526084016103b5565b6001600160a01b038216610bd15760405162461bcd60e51b8152602060048201526024808201527f4552433732313a207472616e7366657220746f20746865207a65726f206164646044820152637265737360e01b60648201526084016103b5565b610bdc6000826109a0565b6001600160a01b0383166000908152600360205260408120805460019290610c0590849061166f565b90915550506001600160a01b0382166000908152600360205260408120805460019290610c33908490611643565b909155505060008181526002602052604080822080546001600160a01b0319166001600160a01b0386811691821790925591518493918716917fddf252ad1be2c89b69c2b068fc378daa952ba7f163c4a11628f55a4df523b3ef91a4505050565b6001600160a01b038216610cea5760405162461bcd60e51b815260206004820181905260248201527f4552433732313a206d696e7420746f20746865207a65726f206164647265737360448201526064016103b5565b610cf381610983565b15610d405760405162461bcd60e51b815260206004820152601c60248201527f4552433732313a20746f6b656e20616c7265616479206d696e7465640000000060448201526064016103b5565b6001600160a01b0382166000908152600360205260408120805460019290610d69908490611643565b909155505060008181526002602052604080822080546001600160a01b0319166001600160a01b03861690811790915590518392907fddf252ad1be2c89b69c2b068fc378daa952ba7f163c4a11628f55a4df523b3ef908290a45050565b610dd082610983565b610e335760405162461bcd60e51b815260206004820152602e60248201527f45524337323155524953746f726167653a2055524920736574206f66206e6f6e60448201526d32bc34b9ba32b73a103a37b5b2b760911b60648201526084016103b5565b600082815260066020908152604090912082516104eb92840190611183565b610e5d848484610af4565b610e6984848484610f5c565b6107e65760405162461bcd60e51b81526004016103b5906115a0565b6060610e9082610983565b610ef45760405162461bcd60e51b815260206004820152602f60248201527f4552433732314d657461646174613a2055524920717565727920666f72206e6f60448201526e3732bc34b9ba32b73a103a37b5b2b760891b60648201526084016103b5565b6000610f0b60408051602081019091526000815290565b90506000815111610f2b57604051806020016040528060008152506105db565b80610f3584611069565b604051602001610f469291906114d3565b6040516020818303038152906040529392505050565b60006001600160a01b0384163b1561105e57604051630a85bd0160e11b81526001600160a01b0385169063150b7a0290610fa0903390899088908890600401611550565b602060405180830381600087803b158015610fba57600080fd5b505af1925050508015610fea575060408051601f3d908101601f19168201909252610fe79181019061142d565b60015b611044573d808015611018576040519150601f19603f3d011682016040523d82523d6000602084013e61101d565b606091505b50805161103c5760405162461bcd60e51b81526004016103b5906115a0565b805181602001fd5b6001600160e01b031916630a85bd0160e11b14905061095b565b506001949350505050565b60608161108d5750506040805180820190915260018152600360fc1b602082015290565b8160005b81156110b757806110a1816116ed565b91506110b09050600a8361165b565b9150611091565b60008167ffffffffffffffff8111156110e057634e487b7160e01b600052604160045260246000fd5b6040519080825280601f01601f19166020018201604052801561110a576020820181803683370190505b5090505b841561095b5761111f60018361166f565b915061112c600a86611708565b611137906030611643565b60f81b81838151811061115a57634e487b7160e01b600052603260045260246000fd5b60200101906001600160f81b031916908160001a90535061117c600a8661165b565b945061110e565b82805461118f906116b2565b90600052602060002090601f0160209004810192826111b157600085556111f7565b82601f106111ca57805160ff19168380011785556111f7565b828001600101855582156111f7579182015b828111156111f75782518255916020019190600101906111dc565b50611203929150611207565b5090565b5b808211156112035760008155600101611208565b600067ffffffffffffffff8084111561123757611237611748565b604051601f8501601f19908116603f0116810190828211818310171561125f5761125f611748565b8160405280935085815286868601111561127857600080fd5b858560208301376000602087830101525050509392505050565b80356001600160a01b03811681146112a957600080fd5b919050565b6000602082840312156112bf578081fd5b6105db82611292565b600080604083850312156112da578081fd5b6112e383611292565b91506112f160208401611292565b90509250929050565b60008060006060848603121561130e578081fd5b61131784611292565b925061132560208501611292565b9150604084013590509250925092565b6000806000806080858703121561134a578081fd5b61135385611292565b935061136160208601611292565b925060408501359150606085013567ffffffffffffffff811115611383578182fd5b8501601f81018713611393578182fd5b6113a28782356020840161121c565b91505092959194509250565b600080604083850312156113c0578182fd5b6113c983611292565b9150602083013580151581146113dd578182fd5b809150509250929050565b600080604083850312156113fa578182fd5b61140383611292565b946020939093013593505050565b600060208284031215611422578081fd5b81356105db8161175e565b60006020828403121561143e578081fd5b81516105db8161175e565b60006020828403121561145a578081fd5b813567ffffffffffffffff811115611470578182fd5b8201601f81018413611480578182fd5b61095b8482356020840161121c565b6000602082840312156114a0578081fd5b5035919050565b600081518084526114bf816020860160208601611686565b601f01601f19169290920160200192915050565b600083516114e5818460208801611686565b8351908301906114f9818360208801611686565b01949350505050565b60008251611514818460208701611686565b7f3a2043616e6e6f74206d696e74206d6f7265207468616e20746f74616c2073759201918252506370706c7960e01b6020820152602401919050565b6001600160a01b0385811682528416602082015260408101839052608060608201819052600090611583908301846114a7565b9695505050505050565b6020815260006105db60208301846114a7565b60208082526032908201527f4552433732313a207472616e7366657220746f206e6f6e20455243373231526560408201527131b2b4bb32b91034b6b83632b6b2b73a32b960711b606082015260800190565b60208082526031908201527f4552433732313a207472616e736665722063616c6c6572206973206e6f74206f6040820152701ddb995c881b9bdc88185c1c1c9bdd9959607a1b606082015260800190565b600082198211156116565761165661171c565b500190565b60008261166a5761166a611732565b500490565b6000828210156116815761168161171c565b500390565b60005b838110156116a1578181015183820152602001611689565b838111156107e65750506000910152565b600181811c908216806116c657607f821691505b602082108114156116e757634e487b7160e01b600052602260045260246000fd5b50919050565b60006000198214156117015761170161171c565b5060010190565b60008261171757611717611732565b500690565b634e487b7160e01b600052601160045260246000fd5b634e487b7160e01b600052601260045260246000fd5b634e487b7160e01b600052604160045260246000fd5b6001600160e01b03198116811461177457600080fd5b5056fe68747470733a2f2f666972656261736573746f726167652e676f6f676c65617069732e636f6d2f76302f622f7061792d612d766567616e2e61707073706f742e636f6d2f6f2f6e667425324663686f63686f2d636f6e74726163742e6a736f6e3f616c743d6d6564696126746f6b656e3d61653232393330612d306364372d343930632d616431302d313136346533323736636465a2646970667358221220d289984eaf022c8e2328ed9597f26ec43d7b00ded6df7cd96f17dcaf619351f664736f6c63430008040033",
  "linkReferences": {},
  "deployedLinkReferences": {}
}